:1000000012C02CC02BC02AC029C028C027C026C0BF
:1000100025C024C023C022C021C020C01FC01EC0D4
:100020001DC01CC01BC011241FBECFE5D4E0DEBF25
:10003000CDBF10E0A0E6B0E0E4EAF5E002C0059034
:100040000D92AA36B107D9F710E0AAE6B0E001C0D8
:100050001D92AD36B107E1F725D0A2C2D1CF9B01E9
:10006000AC0160E070E080E89FE31ED02DEB37E349
:1000700046E858E319D0BFD0CB01089586E087BB8E
:1000800064EA70ED82E893E4EADF97BD86BD86B549
:1000900097B5969587959BBD8ABD80EE8FBD83E110
:1000A0008EBD0895EBDFFFCFA8E1B0E0E9E5F0E019
:1000B00048C269837A838B839C832D833E834F83DD
:1000C0005887B9E0EB2EF12CEC0EFD1ECE01019607
:1000D000B701B7D18E010F5E1F4FCE010596B80153
:1000E000B0D12985223008F47EC03989323010F42D
:1000F000B8017CC08A859A8989278A87243011F0C3
:10010000223031F4231709F06EC061E670E06EC052
:10011000343039F41D861E861F86188A1C861B867D
:1001200004C0323021F484E08987B7015FC02B8599
:100130003C858B899C89281B390B3C872B87ED8458
:10014000FE840F851889AD88BE88CF88D88CEA14C4
:10015000FB040C051D0540F4EE0CFF1C001F111FD5
:10016000215030403C872B8720E030E040E050E0D9
:1001700080E090E0A0E0B0E460E070E0EA14FB040E
:100180000C051D0540F0282B392B4A2B5B2BEA1858
:10019000FB080C091D09B695A79597958795EE0C58
:1001A000FF1C001F111F6F5F7F4F6F31710531F70B
:1001B000DA01C9018F779070A070B070803491051A
:1001C000A105B10561F427FD0AC0E114F1040105A0
:1001D000110529F0205C3F4F4F4F5F4F20782D874E
:1001E0003E874F87588BBE01675F7F4FCB0154D04E
:1001F0006896EAE0C2C1ACE0B0E0E0E0F1E0A9C19D
:1002000069837A838B839C83CE010196BE016B5FE9
:100210007F4F17D18D81823061F1823050F184306F
:1002200021F48E81882351F12EC02F81388537FD2E
:1002300020C06E812F3131051CF06623F9F023C0F8
:100240008EE190E0821B930B29853A854B855C8576
:1002500004C056954795379527958A95D2F766231A
:10026000B1F050954095309521953F4F4F4F5F4FDE
:100270000EC020E030E040E050E009C02FEF3FEF3B
:100280004FEF5FE704C020E030E040E050E8B90104
:10029000CA012C96E2E079C1DF92EF92FF920F93B0
:1002A0001F93FC01E480F58006811781D180808155
:1002B000823048F480E090E0A0E1B0E0E82AF92A3A
:1002C0000A2B1B2BA5C0843009F49FC0823021F477
:1002D000EE24FF24870105C0E114F1040105110596
:1002E00019F4E0E0F0E096C0628173819FEF62381C
:1002F00079070CF05BC022E83FEF261B370B2A3151
:1003000031052CF020E030E040E050E02AC0B80198
:10031000A701022E04C076956795579547950A94D4
:10032000D2F781E090E0A0E0B0E004C0880F991F10
:10033000AA1FBB1F2A95D2F70197A109B1098E21E7
:100340009F21A023B1230097A105B10521F081E0F1
:1003500090E0A0E0B0E09A01AB01282B392B4A2BAA
:100360005B2BDA01C9018F779070A070B070803478
:100370009105A105B10539F427FF09C0205C3F4F65
:100380004F4F5F4F04C0215C3F4F4F4F5F4FE0E046
:10039000F0E02030A0E03A07A0E04A07A0E45A07C6
:1003A00010F0E1E0F0E079018A0127C060387105C2
:1003B00064F5FB01E158FF4FD801C7018F779070BA
:1003C000A070B07080349105A105B10539F4E7FE45
:1003D0000DC080E490E0A0E0B0E004C08FE390E0C6
:1003E000A0E0B0E0E80EF91E0A1F1B1F17FF05C0B2
:1003F00016950795F794E794319687E0169507953B
:10040000F794E7948A95D1F705C0EE24FF2487017D
:10041000EFEFF0E06E2F679566276795902F9F7737
:10042000D794DD24D7948E2F8695492F462B582FAD
:100430005D29B701CA011F910F91FF90EF90DF90E6
:100440000895FC01DB01408151812281622F6F7789
:1004500070E0221F2227221F9381892F880F822B71
:10046000282F30E0991F9927991F11969C93119777
:1004700021153105A9F5411551056105710511F4E5
:1004800082E037C082E89FEF13969C938E93129779
:100490009A01AB0167E0220F331F441F551F6A9575
:1004A000D1F783E08C930DC0220F331F441F551FDB
:1004B00012968D919C911397019713969C938E930E
:1004C0001297203080E0380780E0480780E4580722
:1004D00058F314962D933D934D935C93179708957D
:1004E0002F3F310579F4411551056105710519F466
:1004F00084E08C93089564FF03C081E08C9312C064
:100500001C9210C02F57304013963C932E93129795
:1005100083E08C9387E0440F551F661F771F8A95F1
:10052000D1F7706414964D935D936D937C931797F8
:1005300008952F923F924F925F926F927F928F9287
:100540009F92AF92BF92CF92DF92EF92FF920F9362
:100550001F93CF93DF93CDB7DEB7CA1BDB0B0FB66C
:10056000F894DEBF0FBECDBF09942A883988488829
:100570005F846E847D848C849B84AA84B984C884BF
:10058000DF80EE80FD800C811B81AA81B981CE0FB6
:10059000D11D0FB6F894DEBF0FBECDBFED0108959B
:0405A000F894FFCFFD
:0A05A400010000000000000000004C
:00000001FF
