:1000000026C040C03FC03EC03DC03CC03BC03AC01F
:1000100039C038C037C036C035C034C033C032C034
:1000200031C030C02FC08FC091C093C095C097C061
:1000300099C09DC0A1C0A3C0A5C0A7C0A9C0ABC0A6
:10004000ADC0AFC0B1C0B3C0B7C0B9C0BDC011244E
:100050001FBECFE5D4E0DEBFCDBF10E0A0E6B0E02C
:10006000EAE9F3E002C005900D92AE36B107D9F788
:1000700010E0AEE6B0E001C01D92A937B107E1F78C
:1000800023D189C1BDCF282F64E02ED1E82FFF27CF
:10009000E7FDF095EC58FF4F822F64E025D121E079
:1000A00030E002C0220F331F9A95E2F78081822B45
:1000B00080830895992787FD9095FC01EC58FF4FA8
:1000C0002FE0208321E030E002C0220F331F8A9509
:1000D000E2F7E4E7F0E08081822B819380E0E9376A
:1000E000F807C9F70895E82FFF27E7FDF095EC58CA
:1000F000FF4F8FE08083089521E030E002C0220F9F
:10010000331F8A95E2F7E4E7F0E08081822B819348
:1001100080E0E937F807C9F708951092740010924B
:100120007500109276001092770010927800089572
:1001300014BA15BA0895FC018431910508F048C03D
:10014000ED5EFF4F099424E030E00EC023E030E084
:1001500010C022E030E02DC021E030E032C023E0CA
:1001600030E034C022E030E043E050E031C021E034
:1001700030E042E050E02CC020E030E01AC024E043
:1001800030E0F7CF22E030E021C020E030E0F1CFD6
:1001900022E030E016C021E030E018C024E030E07A
:1001A00008C023E030E00DC020E030E0DDCF23E0E8
:1001B00030E041E050E00CC021E030E0D5CF24E059
:1001C00030E040E050E004C020E030E044E050E0A7
:1001D00014BA15BA81E090E0BC0102C0660F771F27
:1001E0002A95E2F702C0880F991F4A95E2F7862BFD
:1001F00084BB65BB0895992787FD9095880F991F4B
:10020000880F991F772767FD7095860F971F93DFDB
:100210000895FF920F931F93CF93DF9304E710E0AD
:10022000FF241AC0F8018081992787FD90950C2E34
:1002300002C0959587950A94E2F780FF03C08F2D41
:100240006C2FD9DF2196C430D10561F7F3940F5F8D
:100250001F4FF5E0FF1619F0C0E0D0E0E3CFCDB7B7
:10026000DEB7E5E077C067DF089510BC8CE089B9A0
:10027000599A8EE880BD88E18AB908950F931F933B
:10028000CF93DF938C01C0E0D0E00FC05D9BFECF29
:10029000F801EC0FFD1F80818CB964E125D0892F16
:1002A000992787FD909547DF2196F801019000205E
:1002B000E9F73197E01BF10BCE17DF0738F3DF9139
:1002C000CF911F910F910895A2E3B0E0E9E6F1E02C
:1002D00026C0CBDF8E010F5F1F4FC80160E670E0C4
:1002E00053D0C801CBDFF9CF87FB082E062687FD48
:1002F000819567FD61953CD00EF4919507FC819541
:1003000008952F923F924F925F926F927F928F92B9
:100310009F92AF92BF92CF92DF92EF92FF920F9394
:100320001F93CF93DF93CDB7DEB7CA1BDB0B0FB69E
:10033000F894DEBF0FBECDBF09942A88398848885B
:100340005F846E847D848C849B84AA84B984C884F1
:10035000DF80EE80FD800C811B81AA81B981CE0FE8
:10036000D11D0FB6F894DEBF0FBECDBFED010895CD
:10037000991B79E004C0991F961708F0961B881FF7
:100380007A95C9F780950895FB01DC0101900D92E3
:0A0390000020E1F70895F894FFCF74
:0E039A0048656C6C6F20576F726C6421000018
:00000001FF
