:1000000026C040C03FC03EC03DC03CC03BC03AC01F
:1000100039C038C037C083C1A6C157C133C032C050
:1000200031C030C02FC08FC091C093C095C097C061
:1000300099C09DC0A1C0A3C0A5C0A7C0A9C0ABC0A6
:10004000ADC0AFC0B1C0B3C0B7C0B9C0BDC011244E
:100050001FBECFE5D4E0DEBFCDBF10E0A0E6B0E02C
:10006000E0E4F4E002C005900D92A036B107D9F7A4
:1000700010E0A0E6B0E001C01D92AC36B107E1F798
:10008000F4D0DCC1BDCF282F64E0A4D1E82FFF2736
:10009000E7FDF095E959FF4F822F64E09BD121E005
:1000A00030E002C0220F331F9A95E2F78081822B45
:1000B00080830895992787FD9095FC01E959FF4FAA
:1000C0002FE0208321E030E002C0220F331F8A9509
:1000D000E2F7E7E6F0E08081822B819380E0EC3666
:1000E000F807C9F70895E82FFF27E7FDF095E959CC
:1000F000FF4F8FE08083089521E030E002C0220F9F
:10010000331F8A95E2F7E7E6F0E08081822B819346
:1001100080E0EC36F807C9F7089510926700109256
:1001200068001092690010926A0010926B000895A6
:1001300014BA15BA0895FC018431910508F048C03D
:10014000ED5EFF4F099424E030E00EC023E030E084
:1001500010C022E030E02DC021E030E032C023E0CA
:1001600030E034C022E030E043E050E031C021E034
:1001700030E042E050E02CC020E030E01AC024E043
:1001800030E0F7CF22E030E021C020E030E0F1CFD6
:1001900022E030E016C021E030E018C024E030E07A
:1001A00008C023E030E00DC020E030E0DDCF23E0E8
:1001B00030E041E050E00CC021E030E0D5CF24E059
:1001C00030E040E050E004C020E030E044E050E0A7
:1001D00014BA15BA81E090E0BC0102C0660F771F27
:1001E0002A95E2F702C0880F991F4A95E2F7862BFD
:1001F00084BB65BB0895992787FD9095880F991F4B
:10020000880F991F772767FD7095860F971F93DFDB
:100210000895FF920F931F93CF93DF9307E610E0AB
:10022000FF241AC0F8018081992787FD90950C2E34
:1002300002C0959587950A94E2F780FF03C08F2D41
:100240006C2FD9DF2196C430D10561F7F3940F5F8D
:100250001F4FF5E0FF1619F0C0E0D0E0E3CFCDB7B7
:10026000DEB7E5E0D1C067DF08951F9317BA18BA6B
:1002700010BC8CE089B988E18AB98EE880BD8AB16A
:100280008AB978941AE05D9BFECF1CB98091660014
:100290008F5F80936600BDDFF6CF282FB99AC19893
:1002A00001C050985D9BFDCF822F992787FD9095C7
:1002B00080719170892B09F0509A2CB98091660059
:1002C000882311F4B99AC19A08951F920F920FB61C
:1002D0000F9211242F933F934F935F936F937F93CC
:1002E0008F939F93AF93BF93EF93FF9382E0CBDE07
:1002F000809166008F5F80936600CFDFFF91EF9162
:10030000BF91AF919F918F917F916F915F914F912D
:100310003F912F910F900FBE0F901F9018951F9235
:100320000F920FB60F9211242F933F934F935F9329
:100330006F937F938F939F93AF93BF93EF93FF93AD
:1003400080E0A1DEFF91EF91BF91AF919F918F91DE
:100350007F916F915F914F913F912F910F900FBEC1
:100360000F901F9018951F920F920FB60F921124A5
:100370002F933F934F935F936F937F938F939F93AD
:10038000AF93BF93EF93FF9381E07DDE8091660092
:100390008CB98F5F80936600FF91EF91BF91AF9111
:1003A0009F918F917F916F915F914F913F912F918D
:1003B0000F900FBE0F901F90189510BC8CE089B95C
:1003C00088E18AB98EE880BD0895B99AC19880E025
:1003D00090E0089587FB082E062687FD819567FD2E
:1003E000619520D00EF4919507FC819508952A8897
:1003F000398848885F846E847D848C849B84AA8439
:10040000B984C884DF80EE80FD800C811B81AA81C5
:10041000B981CE0FD11D0FB6F894DEBF0FBECDBF90
:10042000ED010895991B79E004C0991F961708F013
:10043000961B881F7A95C9F780950895F894FFCF89
:00000001FF
