:100000000C945F000C947C000C947C000C947C009D
:100010000C947C000C947C000C947C000C947C0070
:100020000C947C000C947C000C947C000C943E039B
:100030000C94CF000C947C000C947C000C947C00FD
:100040000C947C000C947C000C9435120C947C0075
:100050000C947C000C947C000C947C000C947C0030
:100060000C947C000C947C00084AD73B3BCE016E7C
:1000700084BCBFFDC12F3D6C74319ABD56833DDAFF
:100080003D00C77F11BED9E4BB4C3E916BAAAABE0E
:10009000000000803F072C7AA5BA6CC590DA3B932C
:1000A00065FC8BBC53F810FD3C5692834DBD879D7B
:1000B0003AB63DCBC9BF5BBE73DA0FC93F0011240E
:1000C0001FBECFEFD8E0DEBFCDBF13E0A0E0B1E0B0
:1000D000E0EBFDE302C005900D92AC3DB107D9F70E
:1000E00014E0ACEDB3E001C01D92AF39B107E1F708
:1000F0000E94CA110C94D61E0C940000982F809177
:10010000C00085FFFCCF9093C6000895EAE0F4E0BC
:10011000119284E0E433F807D9F708951092C500EE
:1001200087E68093C40082E28093C0008EE08093D3
:10013000C200E1ECF0E088E1808380818068808308
:100140007894089590916F00946090936F0091E07F
:100150009093DD0340918400509185006091880068
:100160007091890090E028EE33E0FC01E29FC0012D
:10017000E39F900DF29F900D1124840F951F0E9414
:10018000141990938B0080938A008091DD0388235B
:10019000E1F780916F008B7F80936F0008951F922D
:1001A0000F920FB60F9211241092DD030F900FBE25
:1001B0000F901F90189580E28093B800E9EBF0E073
:1001C00080818C7F8083089584E98093BC000895AA
:1001D00083E89FEF9093F3038093F20387E89FEF08
:1001E000909335048093340488E797EC90939E04B1
:1001F00080939D048AE394E890933F0480933E04A7
:1002000080E392E6909305048093040480EC9DE5DE
:100210009093FB038093FA038AE795E19093F903A7
:100220008093F8038DE390E09093EF038093EE03C7
:1002300080E090E89093F1038093F00389EF9DEDC7
:1002400090937F0480937E0484E39BE090933D042D
:1002500080933C0408958091800490918104909350
:10026000CF028093CE028091FC039091FD03909386
:10027000D1028093D00208958091800490918104EE
:10028000A0918204B091830427E130E040E050E087
:1002900082279327A427B5274796A11DB11D8093D8
:1002A000800490938104A0938204B093830480918E
:1002B000FC039091FD03A091FE03B091FF03822700
:1002C0009327A427B5274796A11DB11D8093FC0352
:1002D0009093FD03A093FE03B093FF03809142042B
:1002E00090914304A0914404B09145048227932740
:1002F000A427B5274796A11DB11D80934204909372
:100300004304A0934404B09345040895809164008D
:100310008E7F8093640080917C008E7F80937C0030
:1003200080917A00806480937A0080917A0086FDC3
:10033000FCCF20917800609179006370772767FD8A
:100340007095762F6627882777FD8095982F30E067
:1003500040E050E0622B732B842B952B0E944E16AD
:100360002FE335E34EEC5FE30E9448140E94AC1685
:100370002091400430914104442737FD4095542F8B
:10038000621B730B840B950B6093990470939A0412
:1003900080939B0490939C0480917C008160809367
:1003A0007C0080917A00806480937A0080917A004A
:1003B00086FDFCCF209178006091790063707727EB
:1003C00067FD7095762F6627882777FD8095982F93
:1003D00030E040E050E0622B732B842B952B0E9481
:1003E0004E162FE335E34EEC5FE30E9448140E9463
:1003F000AC162091360430913704442737FD4095E0
:10040000542F621B730B840B950B6093EA0370935C
:10041000EB038093EC039093ED030895ECE7F0E099
:10042000108280818F738083EAE7F0E08081887F8B
:100430008083808180688083109241041092400400
:1004400010923704109236040E948601809199041C
:1004500090919A0490934104809340048091EA0320
:100460009091EB0390933704809336040895089598
:10047000089580919804089580918504089580914D
:100480008404089580919704089593EA94BD84E0CC
:1004900085BD9093B00086E08093B10017BC18BC76
:1004A0001092B3001092B4008AB188668AB9239A78
:1004B00008959B01813041F182301CF4882339F08A
:1004C00008958230F1F1833009F076C058C0B90147
:1004D000882777FD8095982F0E944E1620E030E007
:1004E00048EC52E40E94421520E030E048E652E435
:1004F0000E94481420E030E048E951E40E941B14B7
:100500000E94721267BD0895B901882777FD809512
:10051000982F0E944E1620E030E048EC52E40E94F2
:10052000421520E030E048E652E40E94481420E002
:1005300030E048E951E40E941B140E94721268BD29
:100540000895B901882777FD8095982F0E944E164F
:1005500020E030E048EC52E40E94421520E030E018
:1005600048E652E40E94481420E030E048E951E4B3
:100570000E941B140E9472126093B3000895B90187
:10058000882777FD8095982F0E944E1620E030E056
:1005900048EC52E40E94421520E030E048E652E484
:1005A0000E94481420E030E048E951E40E941B1406
:1005B0000E9472126093B40008950F931F938536C2
:1005C000A0F4082F112707FD109580E0B8010E94C4
:1005D000590281E0B8010E94590282E0B8010E94EC
:1005E000590283E0B8010E9459021F910F910895AA
:1005F00080E060E070E00E94590281E060E070E01D
:100600000E94590282E060E070E00E94590283E09B
:1006100060E070E00E945902089560919804772785
:1006200067FD709580E00E945902609185047727EC
:1006300067FD709581E00E945902609184047727DC
:1006400067FD709582E00E945902609197047727B8
:1006500067FD709583E00E94590208951092800012
:100660008AE0809381008FEF9FE7909389008093C9
:10067000880082E080936F00789408951F920F9213
:100680000FB60F9211248F9381E08093E60380933D
:10069000E7038F910F900FBE0F901F9018952F9228
:1006A0003F924F925F926F927F928F929F92AF9202
:1006B000BF92CF92DF92EF92FF920F931F93209001
:1006C00080043090810440908204509083046090B4
:1006D000FC037090FD038090FE039090FF03A090B8
:1006E0004204B0904304C0904404D0904504C40137
:1006F000B301A40193010E94F5187B018C01C20192
:10070000B101A20191010E94F518E60EF71E081F23
:10071000191FC601B501A60195010E94F518E60E44
:10072000F71E081F191FC801B7010E944E160E942C
:10073000031C9B01AC0160E070E080E89FE30E9435
:1007400042157B018C01C601B5010E944E16A8011D
:1007500097010E9448145B016C01C401B3010E941F
:100760004E16A80197010E9448140E94D0193B011F
:100770004C01C201B1010E944E16A80197010E94CE
:100780004814A60195010E944D1A7B018C01C601F7
:10079000B5010E94AC1660938A0470938B04809319
:1007A0008C0490938D04C401B3012BED3FE049E428
:1007B00050E40E94421520E030E044E353E40E94FC
:1007C000481420E030E044EB52E40E94EA130E9417
:1007D000AC1660938F04709390048093910490936F
:1007E0009204C801B7012BED3FE049E450EC0E94B0
:1007F000421520E030E044E353E40E9448140E9494
:10080000AC16609393047093940480939504909332
:1008100096041F910F91FF90EF90DF90CF90BF90C3
:10082000AF909F908F907F906F905F904F903F9090
:100830002F9008952F923F924F925F926F927F92E6
:100840008F929F92AF92BF92CF92DF92EF92FF92E0
:100850000F931F937C015B01AA9CB001AB9C700DB0
:10086000BA9C700D1124889F9001899F300D989F2C
:10087000300D1124620F731F449F9001459F300D6E
:10088000549F300D1124620F731F882777FD8095C8
:10089000982F0E944E160E94031C3B014C0100271A
:1008A000F7FC0095102FC801B7010E944E16A40155
:1008B00093010E9448141B012C01CC24B7FCC09466
:1008C000DC2CC601B5010E944E16A40193010E94C2
:1008D00048140E94AC16882777FD8095982F0E94B7
:1008E0004E167B018C01C201B1010E94AC16882713
:1008F00077FD8095982F0E944E169B01AC01C80190
:10090000B7010E944D1A7B018C0120E030E040E0ED
:1009100050E00E941E16882354F4C801B7012BED45
:100920003FE049EC50E40E941B147B018C01C8019C
:10093000B70120E030E044E353E40E9448142BED7B
:100940003FE049E450E40E9442151F910F91FF904F
:10095000EF90DF90CF90BF90AF909F908F907F905F
:100960006F905F904F903F902F900895AC01DC0105
:100970000D900020E9F71197A81BB90B20E030E09B
:100980000CC0FA01E20FF31FE0818091C00085FFE7
:10099000FCCFE093C6002F5F3F4F2A173B0788F339
:1009A0008091C00085FFFCCF8DE08093C6008091D0
:1009B000C00085FFFCCF8AE08093C6000895A8E2BE
:1009C000B0E0E5EEF4E00C946F190E9486018DB75B
:1009D0009EB70C970FB6F8949EBF0FBE8DBFEDB7B4
:1009E000FEB731968E010F5F1F4FADB7BEB712969F
:1009F0001C930E93119730E0C32E31E0D32ED38297
:100A0000C28220E4E22EF12CF582E48286E090E0BE
:100A1000978386838091990490919A04A0919B0476
:100A2000B0919C0480879187A287B3870E94AC19FC
:100A30008DB79EB70C960FB6F8949EBF0FBE8DBFB4
:100A4000C8010E94B604ADB7BEB71C970FB6F894A4
:100A5000BEBF0FBEADBFEDB7FEB7319612961C9369
:100A60000E931197D382C282F582E48287E090E0F0
:100A7000978386838091EA039091EB03A091EC0326
:100A8000B091ED0380879187A287B3870E94AC194C
:100A90008DB79EB70C960FB6F8949EBF0FBE8DBF54
:100AA000C8010E94B604A896E8E00C948B19A8E24D
:100AB000B0E0EDE5F5E00C9473190E9486018DB766
:100AC0009EB708970FB6F8949EBF0FBE8DBFEDB7C7
:100AD000FEB731968E010F5F1F4FADB7BEB71296AE
:100AE0001C930E93119788E091E093838283809109
:100AF000990490919A04A0919B04B0919C048483E2
:100B00009583A683B7830E94AC198DB79EB70896CC
:100B10000FB6F8949EBF0FBE8DBFC8010E94B604E9
:100B2000ADB7BEB718970FB6F894BEBF0FBEADBF36
:100B3000EDB7FEB7319612961C930E9311978EE186
:100B400091E0938382838091EA039091EB03A091DB
:100B5000EC03B091ED0384839583A683B7830E9451
:100B6000AC198DB79EB708960FB6F8949EBF0FBE0E
:100B70008DBFC8010E94B604A896E4E00C948F19BA
:100B8000A5E1B0E0E6ECF5E00C947019982F7B013C
:100B9000D42E84EA8093BC008091BC0087FFFCCFF8
:100BA0009093BB0084E88093BC008091BC0087FFD9
:100BB000FCCF8091B900887F803459F08E010F5F9F
:100BC0001F4FC80164E371E00E94A519C8010E948B
:100BD000B604D70120E030E04D2D552747FD509554
:100BE0004150504094EC0BC09093BC008091BC00ED
:100BF00087FFFCCF8091BB008D932F5F3F4FE22F8B
:100C0000241735078CF384E88093BC008091BC00E6
:100C100087FFFCCF8091BB00FF27E7FDF095EE0D2D
:100C2000FF1D80836596E7E00C948C19A5E1B0E088
:100C3000ECE1F6E00C946E19F82EC62EE72EB42ED9
:100C400084EA8093BC008091BC0087FFFCCF809138
:100C5000B900887F883081F08091B900887F803129
:100C600059F08E010F5F1F4FC8016DE471E00E94C3
:100C7000A519C8010E94B604F092BB0084E88093D5
:100C8000BC008091BC0087FFFCCF8091B900887FB9
:100C9000883159F08E010F5F1F4FC80161E671E086
:100CA0000E94A519C8010E94B6048C2D9E2D9C019E
:100CB000890144E8D42E7E010894E11CF11C19C07E
:100CC000F80180818093BB00D092BC008091BC0071
:100CD00087FFFCCF8091B900887F883241F0C7013F
:100CE00069E771E00E94A519C7010E94B6040F5F71
:100CF0001F4F802F8C198B151CF36596E9E00C941F
:100D00008A19A6E1B0E0E7E8F6E00C947419162F12
:100D100089831A828AEABE016F5F7F4F41E00E9499
:100D200016068BEABE016D5F7F4F412F0E94C00502
:100D300084E98093BC006B817C818D819E8120E061
:100D400030E048EC52E40E9448140E94AC166093D4
:100D50004A0470934B0480934C0490934D04669620
:100D6000E3E00C949019A1E0B0E0E9EBF6E00C941C
:100D70007519198284EABE016F5F7F4F41E00E94BE
:100D8000160684E98093BC002196E2E00C94911948
:100D9000A6E0B0E0EEECF6E00C946D1985EABE0139
:100DA0006F5F7F4F46E00E94C00584E98093BC00DE
:100DB0000E943C012E81822F85958595859585958C
:100DC000E82EFF24E7FCF0940F2D1F2D83E090E028
:100DD000A0E0B0E0E822F9220A231B238C819927A6
:100DE00087FD9095A92FB92FE2E0880F991FAA1FC0
:100DF000BB1FEA95D1F7E82AF92A0A2B1B2B8FEFA4
:100E000093E0A0E0B0E0E822F9220A231B23822F1E
:100E10008295869586958370A82EBB24A7FCB094F6
:100E2000CB2CDB2C8D81992787FD9095A92FB92F8D
:100E300072E0880F991FAA1FBB1F7A95D1F7A82AC5
:100E4000B92ACA2ADB2A8FEF93E0A0E0B0E0A822FB
:100E5000B922CA22DB2225952595332727FD309517
:100E6000432F532F23703070407050708B8199271F
:100E700087FD9095A92FB92F62E0880F991FAA1FAF
:100E8000BB1F6A95D1F7282B392B4A2B5B2B33706C
:100E9000407050708091CE029091CF02AA2797FDAA
:100EA000A095BA2F281B390B4A0B5B0B20938004AB
:100EB0003093810440938204509383048091D00244
:100EC0009091D102AA2797FDA095BA2FE81AF90AA6
:100ED0000A0B1B0BE092FC03F092FD030093FE0350
:100EE0001093FF038091D2029091D302AA2797FD1D
:100EF000A095BA2FA81AB90ACA0ADB0AA09242041E
:100F0000B0924304C0924404D09245040E94B306B8
:100F10002696EAE00C948919A2E0B0E0E2E9F7E055
:100F20000C94751980E489831A8284EABE016F5F8C
:100F30007F4F42E00E94160684E98093BC0022960F
:100F4000E2E00C949119A2E0B0E0E9EAF7E00C9439
:100F50006E1924EFB22EB9828EE28A838EEE8E0154
:100F60000F5F1F4FB80142E00E9416069CEBE92E6E
:100F7000F12C84E9D82EF701D0828AE00E94A200E9
:100F8000B6EFCB2EC9821A828EEEB80141E00E94E4
:100F9000160619821A828FEEB80142E00E94C0053F
:100FA000F701D0828981992787FD9095982F88270E
:100FB0002A81332727FD3095822B932BAA2797FD73
:100FC000A095BA2F8093000490930104A09302048B
:100FD000B0930304B98284E38A838EEEB80142E0C1
:100FE0000E941606F701D0828AE00E94A200C98200
:100FF0001A828EEEB80141E00E94160619821A820A
:101000008FEEB80142E00E94C005F701D0828981CD
:10101000992787FD9095982F88272A81332727FDC8
:101020003095822B932BAA2797FDA095BA2F8093FA
:10103000380490933904A0933A04B0933B04229669
:10104000E9E00C948A19A4E0B0E0E9E2F8E00C943D
:1010500065190E94A307209038043090390440900D
:101060003A0450903B042091FA033091FB0340E096
:1010700050E060910004709101048091020490910D
:101080000304621B730B840B950B209104043091B5
:10109000050440E050E00E94F5187B018C016FE0F0
:1010A00015950795F794E7946A95D1F720917E04FA
:1010B000722F770F770F770F60E0882777FD809585
:1010C000982F20913C0430913D04442737FD4095F2
:1010D000542F2E0D3F1D401F511F0E944A195901C8
:1010E0006A01AE0CBF1CC01ED11E88E090E0A0E0DB
:1010F000B0E0A80EB91ECA1EDB1ED601C50154E021
:10110000B595A795979587955A95D1F7809306043D
:1011100090930704A0930804B093090488E590EF26
:10112000AFEFBFEFA80EB91ECA1EDB1EC601B50188
:10113000A60195010E94F5183B014C014CE09594E5
:101140008794779467944A95D1F720919D043091C4
:101150009E04442737FD4095542FC601B5010E94D7
:10116000F5187B018C013DE015950795F794E79400
:101170003A95D1F782E090E0A0E0B0E0E80EF91EE9
:101180000A1F1B1F2091F8033091F903442737FDF4
:101190004095542FC401B3010E94F518BC01992752
:1011A00077FD9095892FE60EF71E081F191F82E024
:1011B00015950795F794E7948A95D1F780E090E824
:1011C000A0E0B0E0E80EF91E0A1F1B1F20913E04AC
:1011D00030913F0440E050E0C801B7010E94F5188B
:1011E000DC01CB011FE0B695A795979587951A95D9
:1011F000D1F789839A83AB83BC83E090F203F090AC
:10120000F303EE0CFF1CEE0CFF1C0027F7FC00950F
:10121000102F82E090E0A0E0B0E0E80EF91E0A1F77
:101220001B1F2091340430913504442737FD40952D
:10123000542FC601B5010E94F518ABE0959587952E
:1012400077956795AA95D1F7E60EF71E081F191F27
:101250002091EE033091EF03442737FD4095542F42
:10126000C401B3010E94F518FBE095958795779529
:101270006795FA95D1F7E60EF71E081F191FC801EA
:10128000B70124E030E040E050E00E944A19221A01
:10129000330A440A550AC201B10120E533EC40E0AB
:1012A00050E00E94F51897FD0FC0660F771F881F4A
:1012B000991F29813A814B815C810E942819C901BB
:1012C000DA015C016D010CC029813A814B815C819E
:1012D0000E94281959016A01AA0CBB1CCC1CDD1CF8
:1012E0005527D7FC5A954D2D3C2D2B2DCA01B90100
:1012F0000E94F5182EED3BE040E050E00E94F5180A
:101300007B018C01C601B50123E433EE4FEF5FEFA3
:101310000E94F518BC01992777FD9095892F61539C
:10132000714F8F4F9F4F78011127F7FC1095012FB8
:101330006E0D7F1D801F911F34E0959587957795E1
:1013400067953A95D1F76A0D7B1D8C1D9D1D6093A5
:1013500086047093870480938804909389040E9484
:101360004E1620E032E54EE156E40E94421520E0A0
:101370003AE24DE257E40E9448146093F4037093FC
:10138000F5038093F6039093F7032496E2E10C941F
:101390008119A2E0B0E0EFECF9E00C947319198226
:1013A00080E78A838CE38E010F5F1F4FB80142E014
:1013B0000E94160681E0898380EA8A838CE3B80163
:1013C00042E00E94160682E089831A828CE3B8010B
:1013D00042E00E94160684E98093BC002296E4E075
:1013E0000C948F19A8E2B0E0E8EFF9E00C947319BF
:1013F00080E064E00E9481068DB79EB70C970FB61F
:10140000F8949EBF0FBE8DBFEDB7FEB731968E012B
:101410000F5F1F4FADB7BEB712961C930E93119777
:1014200080E091E09383828380E490E095838483DD
:1014300082E090E09783868380914A0490914B04E8
:10144000A0914C04B0914D0480879187A287B38707
:101450000E94AC198DB79EB70C960FB6F8949EBF3C
:101460000FBE8DBFC8010E94B604A896E4E00C949C
:101470008F19A9E2B0E0EFE3FAE00C946F190E9433
:10148000C8060E944F038DB79EB70C970FB6F8940D
:101490009EBF0FBE8DBFEDB7FEB731968E010F5FB9
:1014A0001F4FADB7BEB712961C930E931197A0E0D5
:1014B000CA2EA1E0DA2ED382C28270E4E72EF12C8C
:1014C000F582E4828CE090E09783868380918A04A1
:1014D00090918B04A0918C04B0918D0480879187AA
:1014E000A287B3870E94AC198DB79EB70C960FB632
:1014F000F8949EBF0FBE8DBFC8010E94B604ADB761
:10150000BEB71C970FB6F894BEBF0FBEADBFEDB708
:10151000FEB7319612961C930E931197D382C28216
:10152000F582E4828DE090E09783868380918F043A
:1015300090919004A0919104B0919204808791873A
:10154000A287B3870E94AC198DB79EB70C960FB6D1
:10155000F8949EBF0FBE8DBFC8010E94B604ADB700
:10156000BEB71C970FB6F894BEBF0FBEADBFEDB7A8
:10157000FEB7319612961C930E931197D382C282B6
:10158000F582E4828EE090E09783868380919304D5
:1015900090919404A0919504B091960480879187CE
:1015A000A287B3870E94AC198DB79EB70C960FB671
:1015B000F8949EBF0FBE8DBFC8010E94B604A996C5
:1015C000E8E00C948B19A9E2B0E0E9EEFAE00C94A3
:1015D0006F190E94C8068DB79EB70C970FB6F89486
:1015E0009EBF0FBE8DBFEDB7FEB731968E010F5F68
:1015F0001F4FADB7BEB712961C930E93119780E0A4
:10160000C82E81E0D82ED382C282B0E4EB2EF12C1A
:10161000F582E48289E090E097838683809180045C
:1016200090918104A0918204B09183048087918776
:10163000A287B3870E94AC198DB79EB70C960FB6E0
:10164000F8949EBF0FBE8DBFC8010E94B604ADB70F
:10165000BEB71C970FB6F894BEBF0FBEADBFEDB7B7
:10166000FEB7319612961C930E931197D382C282C5
:10167000F582E4828AE090E0978386838091FC0380
:101680009091FD03A091FE03B091FF0380879187A5
:10169000A287B3870E94AC198DB79EB70C960FB680
:1016A000F8949EBF0FBE8DBFC8010E94B604ADB7AF
:1016B000BEB71C970FB6F894BEBF0FBEADBFEDB757
:1016C000FEB7319612961C930E931197D382C28265
:1016D000F582E4828BE090E09783868380914204D8
:1016E00090914304A0914404B09145048087918770
:1016F000A287B3870E94AC198DB79EB70C960FB620
:10170000F8949EBF0FBE8DBFC8010E94B604A99673
:10171000E8E00C948B19A9E2B0E0E1E9FBE00C945D
:1017200073190E94C8068DB79EB740970FB6F894FC
:101730009EBF0FBE8DBFEDB7FEB731968E010F5F16
:101740001F4FADB7BEB712961C930E9311978EE83C
:1017500091E0938382838091800490918104A09191
:101760008204B091830484839583A683B783809198
:10177000FC039091FD03A091FE03B091FF038087CD
:101780009187A287B3878091420490914304A091EE
:101790004404B091450484879587A687B7870E9443
:1017A000AC198DB79EB740960FB6F8949EBF0FBE8A
:1017B0008DBFC8010E94B604A996E4E00C948F196D
:1017C000A9E2B0E0E6EEFBE00C94731980E48983B3
:1017D00084EA8E010F5F1F4FB80141E00E94160698
:1017E00085EAB80141E00E94C00584E98093BC000D
:1017F00000D000D000D0EDB7FEB731968E010E5F5D
:101800001F4FADB7BEB712961C930E93119783EA84
:1018100091E0938382838981992787FD90959583B1
:1018200084830E94AC198DB79EB706960FB6F894C4
:101830009EBF0FBE8DBFC8010E94B604A996E4E00A
:101840000C948F19AEE2B0E0E8E2FCE00C9473195E
:101850008AEF898384EA8E010F5F1F4FB80141E050
:101860000E94160685EAB80146E00E94C00584E998
:101870008093BC008DB79EB740970FB6F8949EBF7B
:101880000FBE8DBFEDB7FEB731968E01095F1F4FBA
:10189000ADB7BEB712961C930E93119787EB91E0EC
:1018A000938382838981992787FD9095958384838B
:1018B0008A81992787FD9095978386838B819927C5
:1018C00087FD9095918780878C81992787FD9095DA
:1018D000938782878D81992787FD90959587848747
:1018E0008E81992787FD9095978786870E94AC19EE
:1018F0008DB79EB740960FB6F8949EBF0FBE8DBFB2
:10190000C8010E94B604AE96E4E00C948F19A8E2D8
:10191000B0E0EDE8FCE00C9467190E9423084090C9
:1019200086045090870460908804709089046091C8
:10193000F4037091F5038091F6039091F70320E092
:1019400030E048EC52E40E9448140E94AC167B013F
:101950008C018DB79EB70C970FB6F8949EBF0FBE43
:101960008DBFEDB7FEB731966E010894C11CD11C36
:10197000ADB7BEB71296DC92CE92119720E0822EC0
:1019800021E0922E9382828290E4A92EB12CB5821E
:10199000A48283E090E097838683809106049091EF
:1019A0000704A0910804B091090480879187A28759
:1019B000B3870E94AC198DB79EB70C960FB6F894FA
:1019C0009EBF0FBE8DBFC6010E94B604ADB7BEB7A5
:1019D0001C970FB6F894BEBF0FBEADBFEDB7FEB7F4
:1019E00031961296DC92CE92119793828282B582C2
:1019F000A48284E090E09783868340865186628645
:101A000073860E94AC198DB79EB70C960FB6F894EA
:101A10009EBF0FBE8DBFC6010E94B604ADB7BEB754
:101A20001C970FB6F894BEBF0FBEADBFEDB7FEB7A3
:101A300031961296DC92CE92119793828282B58271
:101A4000A48285E090E097838683E086F186028712
:101A500013870E94AC198DB79EB70C960FB6F894F9
:101A60009EBF0FBE8DBFC6010E94B604A896E0E1DE
:101A70000C948319ABE4B0E0E0E4FDE00C9473193E
:101A80000E9423088DB79EB70C970FB6F8949EBF9F
:101A90000FBE8DBFEDB7FEB731968E010F5F1F4FA2
:101AA000ADB7BEB712961C930E93119788EC91E0D8
:101AB000938382838091860490918704A091880407
:101AC000B091890484839583A683B78380910604AB
:101AD00090910704A0910804B09109048087918730
:101AE000A287B3870E94AC198DB79EB70C960FB62C
:101AF000F8949EBF0FBE8DBFC8010E94B604C55B9F
:101B0000DF4FE4E00C948F19A2E3B0E0EAE8FDE0D7
:101B10000C9473190E94A3078DB79EB70C970FB64C
:101B2000F8949EBF0FBE8DBFEDB7FEB731968E0104
:101B30000F5F1F4FADB7BEB712961C930E93119750
:101B400081EE91E0938382838091380490913904EF
:101B5000A0913A04B0913B0484839583A683B78314
:101B60008091000490910104A0910204B0910304BB
:101B700080879187A287B3870E94AC198DB79EB7E3
:101B80000C960FB6F8949EBF0FBE8DBFC8010E9481
:101B9000B604E296E4E00C948F19A2E6B0E0E3ED1F
:101BA000FDE00C9473198AEA89838EEEBE016F5FA3
:101BB0007F4F41E00E9416068FEEBE016E5F7F4FA1
:101BC00046E10E94C00584E98093BC00AA81BB273E
:101BD000A7FDB095BA2FAA278B81992787FD9095ED
:101BE000A82BB92BB093F303A093F2036C81772752
:101BF00067FD7095762F66278D81992787FD9095D3
:101C0000682B792B70933504609334044E815527EB
:101C100047FD5095542F44278F81992787FD909534
:101C2000482B592B50939E0440939D0488859927F7
:101C300087FD9095982F88272985332727FD309594
:101C4000822B932B90933F0480933E048A8599279F
:101C500087FD9095982F88272B85332727FD309572
:101C6000822B932B90930504809304048C859927F1
:101C700087FD9095982F88272D85332727FD309550
:101C8000822B932B9093FB038093FA038E859927E5
:101C900087FD9095982F88272F85332727FD30952E
:101CA000822B932B9093F9038093F80388899927CB
:101CB00087FD9095982F88272989332727FD309510
:101CC000822B932B9093EF038093EE038A899927BD
:101CD00087FD9095982F88272B89332727FD3095EE
:101CE000822B932B9093F1038093F0038C89992797
:101CF00087FD9095982F88272D89332727FD3095CC
:101D0000822B932B90937F0480937E048E89992756
:101D100087FD9095982F88272F89332727FD3095A9
:101D2000822B932B90933D0480933C048DB79EB7F8
:101D30000A970FB6F8949EBF0FBE8DBF2DB73EB762
:101D40002F5F3F4F8E01085E1F4FEDB7FEB7128326
:101D5000018380EF91E0F90193838283B583A483AB
:101D600077836683518740870E94AC198DB79EB7F1
:101D70000A960FB6F8949EBF0FBE8DBFC8010E9491
:101D8000B604ADB7BEB71A970FB6F894BEBF0FBE74
:101D9000ADBFEDB7FEB7319612961C930E93119717
:101DA0008BE092E09383828380913E0490913F0484
:101DB000958384838091040490910504978386839E
:101DC0008091FA039091FB03918780870E94AC1960
:101DD000EDB7FEB73A960FB6F894FEBF0FBEEDBF53
:101DE000C8010E94B6048DB79EB708970FB6F89445
:101DF0009EBF0FBE8DBFEDB7FEB73196ADB7BEB774
:101E000012961C930E93119785E292E0938382833E
:101E10008091F8039091F903958384838091EE0378
:101E20009091EF03978386830E94AC19EDB7FEB7BC
:101E300038960FB6F894FEBF0FBEEDBFC8010E94E2
:101E4000B6048DB79EB70A970FB6F8949EBF0FBE23
:101E50008DBFEDB7FEB73196ADB7BEB712961C93E6
:101E60000E93119784E392E0938382838091F00331
:101E70009091F1039583848380917E0490917F04F7
:101E80009783868380913C0490913D04918780875D
:101E90000E94AC19EDB7FEB73A960FB6F894FEBFA4
:101EA0000FBEEDBFC8010E94B604CE59DF4FE4E07B
:101EB0000C948F19A0E3B0E0E0E6FFE00C947119F8
:101EC00083E089831A821F828CE38E010F5F1F4F8C
:101ED000B80141E00E9416068DE3B80146E00E9479
:101EE000C00584E98093BC008981992787FD90957E
:101EF000982F8827EA81FF27E7FDF0956D817727E6
:101F000067FD7095762F66272E81332727FD309544
:101F1000622B732B4B81552747FD5095542F442737
:101F20002C81332727FD3095422B532B8E2B9F2B53
:101F30000E941A042DB73EB72C5030400FB6F894CB
:101F40003EBF0FBE2DBF0DB71EB70F5F1F4F28E05E
:101F5000E22EF12CEC0EFD1EEDB7FEB7F282E1820F
:101F600020E031E0F8013383228320E430E0358340
:101F7000248321E030E03783268320E030E048EC02
:101F800052E40E9448140E94AC16F80160877187E1
:101F9000828793870E94AC192DB73EB7245F3F4FCD
:101FA0000FB6F8943EBF0FBE2DBFC7010E94B60406
:101FB000E096E6E00C948D190E945A0F0E94870C5F
:101FC0000E94E30A0E94390A0E94DF040E94F2097B
:101FD0000895A0E3B0E0EFEEFFE00C946D1983E00C
:101FE00089831A821F828CE38E010F5F1F4FB80115
:101FF00041E00E9416068DE3B80146E00E94C0054C
:1020000084E98093BC00C980DD24C7FCD094DC2C1B
:10201000CC248A81992787FD9095C82AD92AEB80FC
:10202000FF24E7FCF094FE2CEE248C81992787FD99
:102030009095E82AF92A0D81112707FD1095102F98
:1020400000278E81992787FD9095082B192B2DB796
:102050003EB72A5030400FB6F8943EBF0FBE2DBF9A
:10206000EDB7FEB7319668E0A62EB12CAC0EBD1EC2
:10207000ADB7BEB71296BC92AE9211978BE492E0C8
:1020800093838283D582C482F782E6821187008798
:102090000E94AC19EDB7FEB73A960FB6F894FEBFA2
:1020A0000FBEEDBFC5010E94B604C601B801A7016D
:1020B0000E941A047B018C010E94AC162DB73EB71A
:1020C000285030400FB6F8943EBF0FBE2DBFCDB69E
:1020D000DEB60894C11CD11CADB7BEB71296BC9237
:1020E000AE9211972CE532E0F6013383228375839B
:1020F0006483882777FD8095982F0E944E169B0158
:10210000AC01C801B7010E94EA1320E030E048ECBE
:1021100052E40E9448140E94AC16D60117967C9394
:102120006E9316970E94AC19EDB7FEB738960FB6AE
:10213000F894FEBF0FBEEDBFC5010E94B604E09645
:10214000EAE00C948919AAE2B0E0E9EAF0E10C9423
:10215000731989E089838CE38E010F5F1F4FB801EB
:1021600041E00E9416068DE3B80141E00E94C005DF
:1021700084E98093BC0000D000D000D0EDB7FEB75A
:1021800031968E010E5F1F4FADB7BEB712961C93EE
:102190000E9311978BE692E093838283898199272E
:1021A00087FD9095958384830E94AC198DB79EB767
:1021B00006960FB6F8949EBF0FBE8DBFC8010E9451
:1021C000B604AA96E4E00C948F198AE094E062E8E1
:1021D00072E00E949C19009781F40E940E028AE02E
:1021E0000E94A2000E94C9098AE00E94A2000E94E7
:1021F000E8008AE00E94A2009BC08AE094E067E8C1
:1022000072E00E949C19009721F481E08093E8031A
:1022100008958AE094E06DE872E00E949C190097AE
:1022200029F41092E8031092E90308958AE094E0FB
:1022300062E972E00E949C19009721F481E080938A
:10224000E90308958AE094E067E972E00E949C192E
:10225000009719F40E940E0208958AE094E06AE95A
:1022600072E00E949C19009719F40E945705089586
:102270008AE094E06DE972E00E949C19009719F4DD
:102280000E94E90F08958AE094E060EA72E00E94FB
:102290009C19009719F40E94C90908958AE094E0F6
:1022A00063EA72E00E949C19009719F40E94A3103F
:1022B00008958AE094E066EA72E00E949C19009713
:1022C00019F40E94E80008958AE094E06AEA72E056
:1022D0000E949C19009719F40E94CD0D08958AE080
:1022E00094E06DEA72E00E949C19009719F40E9434
:1022F000840D08958AE094E060EB72E00E949C19DE
:10230000009719F40E943A0D08958AE094E063EB77
:1023100072E00E949C19009719F40E94220C089503
:102320008AE094E066EB72E00E949C19009719F431
:102330000E948C0708958AE094E069EB72E00E94A5
:102340009C19009719F40E948B0B08958AE094E081
:102350006CEB72E00E949C19009719F40E94E00B4C
:1023600008958AE094E06FEB72E00E949C19009758
:1023700081F480918004909181049093CF028093A6
:10238000CE028091FC039091FD039093D102809343
:10239000D0020895109280008AE0809381008FEF30
:1023A0009FE7909389008093880082E080936F007C
:1023B00078940E948E0080E28093B8008091B900EA
:1023C0008C7F8093B9000E9445021092DC038091BB
:1023D000DC03882321F00E94E5101092DC03809139
:1023E000E603882321F00E94DC0F1092E60380911F
:1023F000E703882349F08091E803882329F00E94AD
:102400000D031092E703E3CF8091E903882321F0C5
:102410008AE00E94DD02DBCF0E94F802D8CF9091C3
:102420008E041916BCF4292F332727FD3095F901A6
:10243000E65FFB4F80818A3059F4F901E75FFB4F7B
:1024400080818D3029F4108281E08093DC030AC002
:10245000993224F49F5F90938E04089582EC92E069
:102460000E94B60410928E0408951F920F920FB628
:102470000F9211242F933F934F935F936F937F930A
:102480008F939F93AF93BF93EF93FF93E0918E044D
:10249000EE2349F4AAE0B4E01D9284E0A433B80727
:1024A000D9F71092DC038091C00087FFFCCF8091A8
:1024B000C600FF27E7FDF095E65FFB4F80830E9493
:1024C0000F12FF91EF91BF91AF919F918F917F91EB
:1024D0006F915F914F913F912F910F900FBE0F9091
:1024E0001F901895EF92FF920F931F937B018C0121
:1024F00020E030E040E05FE40E94EE1588238CF09D
:10250000C801B70120E030E040E05FE40E94EA1338
:102510000E94AC169B01AC01205030404040504816
:1025200006C0C801B7010E94AC169B01AC01B901FD
:10253000CA011F910F91FF90EF900895A0E0B0E0C5
:10254000E4EAF2E10C946519DC012B01FA019C919B
:10255000923008F439C1EB018881823008F433C12C
:10256000943069F4843009F02FC111969C91119731
:102570008981981709F428C1A4EDB2E025C18430FF
:1025800009F421C18230A9F4923009F01DC19A01E9
:10259000AD0188E0EA010990AE01E90109929E01CE
:1025A0008150C1F7E201898111969C918923818331
:1025B00008C1923009F407C112962D903C901397F0
:1025C000EB018A819B811496AD90BD90CD90DC90FB
:1025D0001797EC80FD800E811F819101281B390B1C
:1025E000B90137FF04C066277727621B730B60327F
:1025F00071050CF061C0121613066CF53701480125
:10260000062E04C096948794779467940A94D2F720
:1026100021E030E040E050E004C0220F331F441FAF
:10262000551F6A95D2F721503040404050402E212E
:102630003F2140235123211531054105510521F04A
:1026400021E030E040E050E079018A01E628F728F7
:10265000082919293CC0232BD1F1260E371E35013C
:102660004601062E04C096948794779467940A9442
:10267000D2F721E030E040E050E004C0220F331FE9
:10268000441F551F6A95D2F72150304040405040BA
:102690002A213B214C215D212115310541055105A0
:1026A00021F021E030E040E050E059016A01A62825
:1026B000B728C828D9280BC0821593052CF01C0117
:1026C000AA24BB24650103C0EE24FF2487011196D0
:1026D0009C91D20111968C91981709F445C09923C9
:1026E00039F0A80197012A193B094C095D0906C078
:1026F000A60195012E193F09400B510B57FD08C04B
:1027000011823382228224833583468357831DC0FE
:1027100081E081833382228288279927DC01821B12
:10272000930BA40BB50B84839583A683B7830DC04D
:10273000220F331F441F551F24833583468357833D
:10274000828193810197938382832481358146819D
:102750005781DA01C9010197A109B1098F5F9F4F24
:10276000AF4FBF4328F30BC0918333822282EA0C20
:10277000FB1C0C1D1D1DE482F5820683178383E07C
:102780008083248135814681578157FF1AC0C90152
:10279000AA2797FDA095BA2F81709070A070B07095
:1027A0005695479537952795822B932BA42BB52BC0
:1027B00084839583A683B7838281938101969383D3
:1027C0008283DF0101C0D201CD01CDB7DEB7E2E1E6
:1027D0000C948119A0E2B0E0E0EFF3E10C947119E0
:1027E00069837A838B839C832D833E834F835887B1
:1027F000E9E0EE2EF12CEC0EFD1ECE010196B701A4
:102800000E9424188E010F5E1F4FCE010596B8015D
:102810000E9424188A8991E089278A8BC701B80110
:10282000AE01475E5F4F0E949E120E944F17A09616
:10283000E6E00C948D19A0E2B0E0E1E2F4E10C9442
:10284000711969837A838B839C832D833E834F83A5
:102850005887F9E0EF2EF12CEC0EFD1ECE0101960B
:10286000B7010E9424188E010F5E1F4FCE010596FE
:10287000B8010E942418C701B801AE01475E5F4F3E
:102880000E949E120E944F17A096E6E00C948D19AC
:10289000A0E2B0E0EEE4F4E10C94651969837A8378
:1028A0008B839C832D833E834F835887CE01019673
:1028B000BE01675F7F4F0E942418CE010596BE01BE
:1028C0006F5E7F4F0E9424189985923088F0898925
:1028D0008230C8F0943019F4823051F404C084304E
:1028E00029F4923081F484ED92E0C6C0923049F42C
:1028F00020E09A858A89981321E02A87CE010996DB
:10290000BBC0823049F420E09A858A89981321E07F
:102910002A8BCE014196B0C02D843E844F845888C6
:102920006D887E888F88988CEE24FF248701AA24E6
:10293000BB24650140E050E060E070E0E0E0F0E0E2
:10294000C10181709070892BE9F0E60CF71C081D1D
:10295000191D9A01AB012A0D3B1D4C1D5D1D80E028
:1029600090E0A0E0B0E0E614F7040805190520F4B3
:1029700081E090E0A0E0B0E0BA01A901480F591F42
:102980006A1F7B1FAA0CBB1CCC1CDD1C97FE08C059
:1029900081E090E0A0E0B0E0A82AB92ACA2ADB2AA8
:1029A0003196E032F10549F0660C771C881C991CC1
:1029B0005694479437942794C3CFFA85EA892B8994
:1029C0003C898B859C85280F391F2E5F3F4F17C090
:1029D000CA0181709070892B61F016950795F79464
:1029E000E79480E090E0A0E0B0E8E82AF92A0A2B1A
:1029F0001B2B76956795579547952F5F3F4F77FD32
:102A0000E7CF0CC0440F551F661F771F17FD4160AD
:102A1000EE0CFF1C001F111F21503040403090E091
:102A2000590790E0690790E4790760F32B8F3C8F9A
:102A3000DB01CA018F779070A070B070803491056F
:102A4000A105B10561F447FD0AC0E114F1040105D7
:102A5000110529F0405C5F4F6F4F7F4F40781A8E11
:102A6000FE1711F081E08A8F4D8F5E8F6F8F78A3F4
:102A700083E0898FCE0149960E944F17A096E2E12C
:102A80000C948119A8E1B0E0E8E4F5E10C946D192B
:102A900069837A838B839C832D833E834F835887FE
:102AA000B9E0EB2EF12CEC0EFD1ECE010196B70124
:102AB0000E9424188E010F5E1F4FCE010596B801AB
:102AC0000E9424182985223008F47EC039893230CA
:102AD00010F4B8017CC08A859A8989278A872430B6
:102AE00011F0223031F4231709F06EC064ED72E06A
:102AF0006EC0343039F41D861E861F86188A1C86E7
:102B00001B8604C0323021F484E08987B7015FC09E
:102B10002B853C858B899C89281B390B3C872B870F
:102B2000ED84FE840F851889AD88BE88CF88D88C47
:102B3000EA14FB040C051D0540F4EE0CFF1C001FFD
:102B4000111F215030403C872B8720E030E040E0CF
:102B500050E080E090E0A0E0B0E460E070E0EA14D3
:102B6000FB040C051D0540F0282B392B4A2B5B2B51
:102B7000EA18FB080C091D09B695A7959795879546
:102B8000EE0CFF1C001F111F6F5F7F4F6F3171052F
:102B900031F7DA01C9018F779070A070B07080347E
:102BA0009105A105B10561F427FD0AC0E114F10406
:102BB0000105110529F0205C3F4F4F4F5F4F2078F2
:102BC0002D873E874F87588BBE01675F7F4FCB01B4
:102BD0000E944F176896EAE00C948919A8E1B0E0CA
:102BE000E4EFF5E10C94711969837A838B839C83FC
:102BF0002D833E834F83588789E0E82EF12CEC0E1D
:102C0000FD1ECE010196B7010E9424188E010F5EB1
:102C10001F4FCE010596B8010E9424188985823085
:102C200040F08989823028F0C701B8010E949C18C1
:102C300001C08FEF6896E6E00C948D19A8E1B0E032
:102C4000E4E2F6E10C94711969837A838B839C83A7
:102C50002D833E834F83588789E0E82EF12CEC0EBC
:102C6000FD1ECE010196B7010E9424188E010F5E51
:102C70001F4FCE010596B8010E9424188985823025
:102C800040F08989823028F0C701B8010E949C1861
:102C900001C081E06896E6E00C948D19A8E0B0E0F0
:102CA000E4E5F6E10C946E199B01AC0183E08983A5
:102CB000DA01C9018827B7FD83959927AA27BB2781
:102CC000B82E211531054105510519F482E089839B
:102CD0003AC08823A9F0203080E0380780E0480718
:102CE00080E8580729F460E070E080E09FEC30C095
:102CF000EE24FF248701E21AF30A040B150B02C02D
:102D000079018A018EE1C82ED12CDC82CB82ED8242
:102D1000FE820F831887C801B7010E940017019730
:102D20001816190684F4082E04C0EE0CFF1C001FB0
:102D3000111F0A94D2F7ED82FE820F831887C81AFA
:102D4000D90ADC82CB82BA82CE0101960E944F174B
:102D50002896E9E00C948A19ACE0B0E0E2EBF6E1E9
:102D60000C94751969837A838B839C83CE010196B9
:102D7000BE016B5F7F4F0E9424188D81823061F10C
:102D8000823050F1843021F48E81882351F12EC09D
:102D90002F81388537FD20C06E812F3131051CF021
:102DA0006623F9F023C08EE190E0821B930B298506
:102DB0003A854B855C8504C0569547953795279590
:102DC0008A95D2F76623B1F05095409530952195BC
:102DD0003F4F4F4F5F4F0EC020E030E040E050E0EB
:102DE00009C02FEF3FEF4FEF5FE704C020E030E076
:102DF00040E050E8B901CA012C96E2E00C94911928
:102E0000EF92FF920F931F937B018C0180E0E816F5
:102E100080E0F80681E0080780E0180788F48FEF6B
:102E2000E816F1040105110531F028F088E090E082
:102E3000A0E0B0E017C080E090E0A0E0B0E012C0F9
:102E400080E0E81680E0F80680E0080781E01807D7
:102E500028F088E190E0A0E0B0E004C080E190E0DC
:102E6000A0E0B0E020E230E040E050E0281B390B69
:102E70004A0B5B0B04C016950795F794E7948A9567
:102E8000D2F7F701E452FD4F8081281B3109410937
:102E90005109C9011F910F91FF90EF900895DF92A2
:102EA000EF92FF920F931F93FC01E480F58006815F
:102EB0001781D1808081823048F480E090E0A0E1E9
:102EC000B0E0E82AF92A0A2B1B2BA5C0843009F4AC
:102ED0009FC0823021F4EE24FF24870105C0E11455
:102EE000F1040105110519F4E0E0F0E096C06281FB
:102EF00073819FEF623879070CF05BC022E83FEFE7
:102F0000261B370B2A3131052CF020E030E040E061
:102F100050E02AC0B801A701022E04C0769567953B
:102F2000579547950A94D2F781E090E0A0E0B0E091
:102F300004C0880F991FAA1FBB1F2A95D2F70197BB
:102F4000A109B1098E219F21A023B1230097A105DA
:102F5000B10521F081E090E0A0E0B0E09A01AB0182
:102F6000282B392B4A2B5B2BDA01C9018F77907004
:102F7000A070B07080349105A105B10539F427FF28
:102F800009C0205C3F4F4F4F5F4F04C0215C3F4F53
:102F90004F4F5F4FE0E0F0E02030A0E03A07A0E0C4
:102FA0004A07A0E45A0710F0E1E0F0E079018A0155
:102FB00027C06038710564F5FB01E158FF4FD80167
:102FC000C7018F779070A070B07080349105A10513
:102FD000B10539F4E7FE0DC080E490E0A0E0B0E078
:102FE00004C08FE390E0A0E0B0E0E80EF91E0A1FF5
:102FF0001B1F17FF05C016950795F794E7943196A8
:1030000087E016950795F794E7948A95D1F705C060
:10301000EE24FF248701EFEFF0E06E2F679566271F
:103020006795902F9F77D794DD24D7948E2F869520
:10303000492F462B582F5D29B701CA011F910F91C7
:10304000FF90EF90DF900895FC01DB0140815181FA
:103050002281622F6F7770E0221F2227221F938127
:10306000892F880F822B282F30E0991F9927991FCD
:1030700011969C93119721153105A9F5411551051C
:103080006105710511F482E037C082E89FEF139665
:103090009C938E9312979A01AB0167E0220F331F26
:1030A000441F551F6A95D1F783E08C930DC0220F02
:1030B000331F441F551F12968D919C9113970197B2
:1030C00013969C938E931297203080E0380780E00F
:1030D000480780E4580758F314962D933D934D9379
:1030E0005C93179708952F3F310579F441155105E9
:1030F0006105710519F484E08C93089564FF03C0A1
:1031000081E08C9312C01C9210C02F573040139650
:103110003C932E93129783E08C9387E0440F551FC6
:10312000661F771F8A95D1F7706414964D935D934F
:103130006D937C93179708951F93DC01FB019C917D
:10314000923008F447C08081823008F443C0943044
:1031500051F411961C91843099F58181682F70E0AB
:10316000611B71093FC0843021F0923031F482300C
:10317000B9F18181882389F12DC011961C91119795
:103180008230F1F081811817D9F412962D913C917B
:103190001397828193818217930794F02817390738
:1031A000BCF014968D919D910D90BC91A02D248121
:1031B000358146815781281739074A075B0718F47C
:1031C000112341F00AC082179307A407B50740F402
:1031D000112319F061E070E005C06FEF7FEF02C0CE
:1031E00060E070E0CB011F910895629FD001739F52
:1031F000F001829FE00DF11D649FE00DF11D929F93
:10320000F00D839FF00D749FF00D659FF00D9927D1
:10321000729FB00DE11DF91F639FB00DE11DF91FF5
:10322000BD01CF0111240895AA1BBB1B51E107C0AA
:10323000AA1FBB1FA617B70710F0A61BB70B881F46
:10324000991F5A95A9F780959095BC01CD010895D5
:10325000A1E21A2EAA1BBB1BFD010DC0AA1FBB1F9A
:10326000EE1FFF1FA217B307E407F50720F0A21B0C
:10327000B30BE40BF50B661F771F881F991F1A9479
:1032800069F760957095809590959B01AC01BD01A3
:10329000CF01089597FB092E05260ED057FD04D0C7
:1032A000D7DF0AD0001C38F4509540953095219511
:1032B0003F4F4F4F5F4F0895F6F79095809570956B
:1032C00061957F4F8F4F9F4F08952F923F924F925E
:1032D0005F926F927F928F929F92AF92BF92CF92A6
:1032E000DF92EF92FF920F931F93CF93DF93CDB7AF
:1032F000DEB7CA1BDB0B0FB6F894DEBF0FBECDBF27
:1033000009942A88398848885F846E847D848C84F7
:103310009B84AA84B984C884DF80EE80FD800C8100
:103320001B81AA81B981CE0FD11D0FB6F894DEBFE3
:103330000FBECDBFED010895FB01DC018D91019021
:1033400080190110D9F3990B0895FB01DC0101905C
:103350000D920020E1F70895AEE0B0E0E2EBF9E174
:103360000C9473190D891E8986E08C831A83098356
:103370008FEF9FE79E838D839E01275E3F4FCE0197
:1033800001966F89788DA9010E94441C2F81388590
:10339000020F131FF80110822E96E4E00C948F198F
:1033A0009F939F7733D10F9000203AF49058A2EA70
:1033B0002AED3FE049E450E40ED07FC170D130F0F7
:1033C00075D120F031F49F3F11F41EF440C10EF48A
:1033D000E095E7FB36C1E92F81D180F3BA17620788
:1033E00073078407950718F071F49EF599C10EF4E0
:1033F000E0950B2EBA2FA02D0B01B90190010C0105
:10340000CA01A0011124FF27591B99F0593F50F41C
:10341000503E68F11A16F040A22F232F342F442774
:10342000585FF3CF469537952795A795F04053956C
:10343000C9F77EF41F16BA0B620B730B840BBAF03C
:103440009150A1F0FF0FBB1F661F771F881FC2F7A7
:103450000EC0BA0F621F731F841F48F487957795BB
:103460006795B795F7959E3F08F0B3CF9395880F72
:1034700008F09927EE0F97958795089510D158F089
:1034800080E891E009F49EEF11D128F040E851E086
:1034900059F45EEF09C0DBC043C1E92FE0781ED1CB
:1034A00068F3092E052AC1F326173707480759077D
:1034B00038F00E2E07F8E02569F0E025E0640AC038
:1034C000EF6307F8009407FADB01B9019D01DC0105
:1034D000CA01AD01EF9341D0F0D00AD05F915523DE
:1034E00031F02BED3FE049E450FD49ECA4C90895CB
:1034F000DF93DD27B92FBF7740E85FE31616170685
:1035000048075B0710F4D92F12D19F938F937F93B5
:103510006F93B7D1E8E6F0E09DD0CFD02F913F91E7
:103520004F915F9115D1DD2349F09058A2EA2AED21
:103530003FE049EC5FE3D0785D274DDFDF91BDC010
:10354000B5D040F0ACD030F021F45F3F19F079C035
:103550005111E7C07CC0C2D098F39923C9F3552319
:10356000B1F3951B550BBB27AA2762177307840776
:1035700038F09F5F5F4F220F331F441FAA1FA9F32C
:1035800033D00E2E3AF0E0E830D091505040E6951E
:10359000001CCAF729D0FE2F27D0660F771F881F7F
:1035A000BB1F261737074807AB07B0E809F0BB0B6E
:1035B000802DBF01FF2793585F4F2AF09E3F510592
:1035C00068F03FC0AEC05F3FECF3983EDCF38695F9
:1035D00077956795B795F7959F5FC9F7880F911D08
:1035E0009695879597F90895E1E0660F771F881FF4
:1035F000BB1F621773078407BA0720F0621B730BA7
:10360000840BBA0BEE1F88F7E0950895DF93CF93F4
:103610001F930F938B01EC01E5E9F0E01BD04DD037
:103620009801AE018B01EC0160E070E080E89FE35F
:10363000D1D8E9D09801AE010F911F91CF91DF91C0
:1036400087C097F99F6780E870E060E008959FEF7A
:1036500080EC0895DF93CF931F930F93FF92EF9227
:10366000DF927B018C01689405C0DA2EEF0170D0E7
:10367000FE01E894A5912591359145915591AEF3C0
:10368000EF01A9DEFE019701A801DA9479F7DF9036
:10369000EF90FF900F911F91CF91DF91089500243B
:1036A0000A941616170618060906089500240A94A7
:1036B00012161306140605060895092E0394000C2D
:1036C00011F4882352F0BB0F40F4BF2B11F460FFBC
:1036D00004C06F5F7F4F8F4F9F4F089557FD9058E5
:1036E000440F551F59F05F3F71F04795880F97FBC6
:1036F000991F61F09F3F79F0879508951216130680
:103700001406551FF2CF4695F1DF08C016161706AE
:103710001806991FF1CF86957105610508940895E3
:10372000E894BB2766277727CB0197F908959B017B
:10373000AC0160E070E080E89FE3A4C9B0DF28F04E
:10374000B5DF18F0952309F07CCF81CF1124E9CFA4
:10375000C5DFA0F3959FD1F3950F50E0551F629FF1
:10376000F001729FBB27F00DB11D639FAA27F00DDA
:10377000B11DAA1F649F6627B00DA11D661F829F01
:103780002227B00DA11D621F739FB00DA11D621FE6
:10379000839FA00D611D221F749F3327A00D611D03
:1037A000231F849F600D211D822F762F6A2F1124E5
:1037B0009F5750408AF0E1F088234AF0EE0FFF1F38
:1037C000BB1F661F771F881F91505040A9F79E3F6F
:1037D000510570F036CFA5CF5F3FECF3983EDCF398
:1037E000869577956795B795F795E7959F5FC1F7AC
:1037F000FE2B880F911D9695879597F9089511F4E2
:103800000EF425CFBEC272DFD0F39923D9F3CEF3E5
:103810009F57550B87FFC3D20024A0E640EA9001D2
:1038200080585695979528F4805C660F771F881FFF
:1038300020F026173707480730F4621B730B840B00
:10384000202931294A2BA695179407942025312544
:103850004A2758F7660F771F881F20F0261737076B
:10386000480730F4620B730B840B200D311D411D92
:10387000A09581F7B901842F9158880F9695879567
:1038800008959B01AC0104C8ABE0B0E0EAE4FCE1C0
:103890000C9465193C012B015A01FC011782168218
:1038A000838181FD03C06FEF7FEFC6C19AE0892E4F
:1038B0001E010894211C311CF3012381F20123FD18
:1038C000859123FF81912F01882309F4B2C18532AC
:1038D00039F423FD859123FF81912F01853229F44D
:1038E00090E0B3010E94371EE7CF982FFF24EE240B
:1038F0009924FFE1FF15D0F09B3269F09C3228F447
:10390000903259F0933291F40EC09D3249F09033C9
:1039100069F441E024C052E0F52A84E0F82A28C086
:1039200098E0F92A25C0E0E1FE2A22C0F7FC29C070
:10393000892F80538A3070F4F6FE05C0989C902C35
:103940001124980E15C0E89CE02C1124E80EF0E23A
:10395000FF2A0EC09E3229F4F6FC6BC140E4F42A23
:1039600007C09C3619F450E8F52A02C0983649F48D
:10397000F20123FD959123FF91912F01992309F0E5
:10398000B8CF892F8554833018F08052833038F4B3
:1039900044E050E0A40EB51E5FE359830FC0933698
:1039A00031F0933779F0933509F056C020C0F50116
:1039B0008081898342E050E0A40EB51E610101E0E0
:1039C00010E012C0F501C080D180F6FC03C06FEF9B
:1039D0007FEF02C0692D70E042E050E0A40EB51EFA
:1039E000C6010E942C1E8C015FE7F52214C0F50170
:1039F000C080D180F6FC03C06FEF7FEF02C0692D5D
:103A000070E042E050E0A40EB51EC6010E94211EE7
:103A10008C0150E8F52AF3FE07C01AC080E290E05E
:103A2000B3010E94371EEA948E2D90E00817190703
:103A3000A8F30EC0F601F7FC8591F7FE81916F01A6
:103A400090E0B3010E94371EE110EA94015010404B
:103A50000115110579F7EAC0943611F0993669F528
:103A6000F7FE08C0F501208131814281538184E055
:103A700090E00AC0F501808191819C01442737FDC7
:103A80004095542F82E090E0A80EB91E9FE6F922DF
:103A900057FF09C050954095309521953F4F4F4FA6
:103AA0005F4FE0E8FE2ACA01B901A1012AE030E037
:103AB0000E94631ED82ED21840C0953729F41F2DBE
:103AC0001F7E2AE030E01DC01F2D197F9F3661F058
:103AD000903720F4983509F0ACC00FC0903739F01A
:103AE000983709F0A6C004C028E030E00AC0106191
:103AF00014FD146020E130E004C014FD166020E1E4
:103B000032E017FF08C0F5016081718182819381E5
:103B100044E050E008C0F50180819181BC0180E063
:103B200090E042E050E0A40EB51EA1010E94631E89
:103B3000D82ED2188FE7F82EF122F6FE0BC05EEFDA
:103B4000F522D91438F4F4FE07C0F2FC05C08FEE5C
:103B5000F82202C01D2D01C0192DF4FE0DC0FE017A
:103B6000ED0DF11D8081803319F499EEF92208C022
:103B70001F5FF2FE05C003C08F2D867809F01F5F1E
:103B80000F2DF3FC14C0F0FE0FC01E1510F09D2C7D
:103B90000BC09D2C9E0C911A1E2D06C080E290E059
:103BA000B3010E94371E1F5F1E15C0F304C01E150F
:103BB00010F4E11A01C0EE2404FF0FC080E390E08E
:103BC000B3010E94371E02FF1DC001FD03C088E73C
:103BD00090E00EC088E590E00BC0802F867891F0D1
:103BE00001FF02C08BE201C080E2F7FC8DE290E0B1
:103BF000B3010E94371E06C080E390E0B3010E942B
:103C0000371E9A94D914C0F3DA94F101ED0DF11D29
:103C1000808190E0B3010E94371EDD20A9F706C025
:103C200080E290E0B3010E94371EEA94EE20C1F7D3
:103C300043CEF30166817781CB012B96E2E10C94B0
:103C40008119FC010590615070400110D8F78095F2
:103C500090958E0F9F1F0895FC0161507040019058
:103C60000110D8F7809590958E0F9F1F08950F93A0
:103C70001F93CF93DF938C01EB018B8181FF1BC0DE
:103C800082FF0DC02E813F818C819D8128173907CD
:103C900064F4E881F9810193F983E88306C0E8853B
:103CA000F985802F0995892B31F48E819F810196AA
:103CB0009F838E8302C00FEF1FEFC801DF91CF916A
:103CC0001F910F910895FA01AA27283051F1203150
:103CD00081F1E8946F936E7F6E5F7F4F8F4F9F4FA0
:103CE000AF4FB1E03ED0B4E03CD0670F781F891FE2
:103CF0009A1FA11D680F791F8A1F911DA11D6A0FB0
:103D0000711D811D911DA11D20D009F468943F9162
:103D10002AE0269F11243019305D3193DEF6CF0161
:103D20000895462F4770405D4193B3E00FD0C9F727
:103D3000F6CF462F4F70405D4A3318F0495D31FD94
:103D40004052419302D0A9F7EACFB4E0A6959795E7
:103D5000879577956795BA95C9F7009761057105BD
:103D600008959B01AC010A2E069457954795379507
:103D70002795BA95C9F7620F731F841F951FA01D61
:103D800008959F3F31F0915020F48795779567957E
:103D9000B795880F911D9695879597F9089591503D
:103DA0005040660F771F881FD2F70895F894FFCF11
:103DB00025632563256C64004779726F277320584B
:103DC00020286465672F73293A20256C64004779A1
:103DD000726F2773205920286465672F73293A2052
:103DE000256C64007265616420616464726573733C
:103DF0002073656E64206661696C6564006261644D
:103E000020737461727420636F6E646974696F6E7D
:103E10000061646472657373207472616E736D699E
:103E200074206661696C65640064617461207472F9
:103E3000616E736D6974206661696C656400583ADF
:103E400020256C6420593A20256C64205A3A20259C
:103E50006C6400636F6E74726F6C2062797465209D
:103E600069733A202578004E533A20257825782525
:103E70007825782578257800747275655F703A200A
:103E8000256C642C20747275655F743A20256C640F
:103E900000703A20256C642C20743A20256C640054
:103EA000616331203D2025642C206163323D202553
:103EB000642C206163333D202564006163343D2020
:103EC00025752C206163353D2025752C20616336D6
:103ED0003D2025750062313D2025642C2062323D55
:103EE000202564006D623D2025642C206D633D20FB
:103EF00025642C206D643D202564004D616752616E
:103F0000773A202564202564202564004865616493
:103F1000696E673A2025642E2564005374617475B8
:103F2000732072656769737465722069733A20251E
:103F30006400424F4F5400424547494E0053544F8E
:103F4000500049444C45004750004744004D440050
:103F50004D50004D5300424843004243004244004C
:103F60004254004E53004E50004E44004E43004E0B
:103F70005A0042616420436F6D6D616E6400FE0102
:103F8000EA01CC0100000000000000000001020274
:103F900003030303040404040404040405050505E1
:103FA00005050505050505050505050506060606BD
:103FB00006060606060606060606060606060606A1
:103FC000060606060606060606060606070707078D
:103FD0000707070707070707070707070707070771
:103FE0000707070707070707070707070707070761
:103FF0000707070707070707070707070707070751
:10400000070707070707070707070707080808083C
:104010000808080808080808080808080808080820
:104020000808080808080808080808080808080810
:104030000808080808080808080808080808080800
:1040400008080808080808080808080808080808F0
:1040500008080808080808080808080808080808E0
:1040600008080808080808080808080808080808D0
:1040700008080808080808080808080808080808C0
:0C408000080808080808080808080808D4
:00000001FF
