:1000000026C040C03FC03EC03DC03FC1B1C1BEC11F
:1000100039C038C037C036C035C034C033C032C034
:1000200031C030C02FC08FC091C093C095C097C061
:1000300099C09DC0A1C0A3C0A5C0A7C0A9C0ABC0A6
:10004000ADC0AFC0B1C0B3C0B7C0B9C0BDC011244E
:100050001FBECFE5D4E0DEBFCDBF11E0A0E6B0E02B
:10006000ECE4F1E102C005900D92A836B107D9F792
:1000700011E0A8E6B1E001C01D92A637B107E1F793
:10008000F4D062C8BDCF282F64E0E7D7E82FFF2760
:10009000E7FDF095EF58FE4F822F64E0DED721E0B8
:1000A00030E002C0220F331F9A95E2F78081822B45
:1000B00080830895992787FD9095FC01EF58FE4FA6
:1000C0002FE0208321E030E002C0220F331F8A9509
:1000D000E2F7E1E7F1E08081822B819381E0E6376E
:1000E000F807C9F70895E82FFF27E7FDF095EF58C7
:1000F000FE4F8FE08083089521E030E002C0220FA0
:10010000331F8A95E2F7E1E7F1E08081822B81934A
:1001100081E0E637F807C9F708951092710110924F
:10012000720110927301109274011092750108957A
:1001300014BA15BA0895FC018431910508F048C03D
:10014000ED5EFF4F099424E030E00EC023E030E084
:1001500010C022E030E02DC021E030E032C023E0CA
:1001600030E034C022E030E043E050E031C021E034
:1001700030E042E050E02CC020E030E01AC024E043
:1001800030E0F7CF22E030E021C020E030E0F1CFD6
:1001900022E030E016C021E030E018C024E030E07A
:1001A00008C023E030E00DC020E030E0DDCF23E0E8
:1001B00030E041E050E00CC021E030E0D5CF24E059
:1001C00030E040E050E004C020E030E044E050E0A7
:1001D00014BA15BA81E090E0BC0102C0660F771F27
:1001E0002A95E2F702C0880F991F4A95E2F7862BFD
:1001F00084BB65BB0895992787FD9095880F991F4B
:10020000880F991F772767FD7095860F971F93DFDB
:100210000895FF920F931F93CF93DF9301E711E0AF
:10022000FF241AC0F8018081992787FD90950C2E34
:1002300002C0959587950A94E2F780FF03C08F2D41
:100240006C2FD9DF2196C430D10561F7F3940F5F8D
:100250001F4FF5E0FF1619F0C0E0D0E0E3CFCDB7B7
:10026000DEB7E5E027C767DF08951FBC89E08EBDD4
:1002700080E69AEE9BBD8ABD85E090E099BD88BD81
:1002800088E389BF7894C5DFFECF1F920F920FB627
:100290000F921124EF92FF920F931F932F933F938E
:1002A0004F935F936F937F938F939F93AF93BF937E
:1002B000EF93FF9326B537B580916E01813009F039
:1002C00042C00EB406FE07C03093700120936F0148
:1002D0008EB58F7B37C080916F0190917001A9011D
:1002E000481B590BCA0162E070E0C4D6882777FD2D
:1002F0008095982F12D420E030E44DE854E41BD2CE
:1003000020E034E244E759E40BD37B018C0120E088
:1003100030E048E951E4ABD318161CF463E170E017
:1003200003C0C801B70143D010927101109272014D
:10033000109273011092740110927501862FA3DE42
:100340008EB580648EBDFF91EF91BF91AF919F916B
:100350008F917F916F915F914F913F912F911F915D
:100360000F91FF90EF900F900FBE0F901F90189578
:100370001F920F920FB60F921124B89AC09A109242
:100380006E010F900FBE0F901F9018951F920F9245
:100390000FB60F9211248F93C098B89881E0809384
:1003A0006E018F910F900FBE0F901F901895EF92D6
:1003B000FF920F931F937B018C0120E030E040E01F
:1003C0005FE480D388237CF0C801B70120E030E0EF
:1003D00040E05FE45ED1FBD39B01AC012050304094
:1003E0004040504805C0C801B701F1D39B01AC01A2
:1003F000B901CA011F910F91FF90EF900895A0E0FD
:10040000B0E0E4E0F2E084C6DC012B01FA019C914B
:10041000923008F439C1EB018881823008F433C18D
:10042000943069F4843009F02FC111969C91119792
:100430008981981709F428C1A0E6B0E025C184306D
:1004400009F421C18230A9F4923009F01DC19A014A
:10045000AD0188E0EA010990AE01E90109929E012F
:100460008150C1F7E201898111969C918923818392
:1004700008C1923009F407C112962D903C90139751
:10048000EB018A819B811496AD90BD90CD90DC905C
:100490001797EC80FD800E811F819101281B390B7D
:1004A000B90137FF04C066277727621B730B6032E0
:1004B00071050CF061C0121613066CF53701480186
:1004C000062E04C096948794779467940A94D2F782
:1004D00021E030E040E050E004C0220F331F441F11
:1004E000551F6A95D2F721503040404050402E2190
:1004F0003F2140235123211531054105510521F0AC
:1005000021E030E040E050E079018A01E628F72858
:10051000082919293CC0232BD1F1260E371E35019D
:100520004601062E04C096948794779467940A94A3
:10053000D2F721E030E040E050E004C0220F331F4A
:10054000441F551F6A95D2F721503040404050401B
:100550002A213B214C215D21211531054105510501
:1005600021F021E030E040E050E059016A01A62886
:10057000B728C828D9280BC0821593052CF01C0178
:10058000AA24BB24650103C0EE24FF248701119631
:100590009C91D20111968C91981709F445C099232A
:1005A00039F0A80197012A193B094C095D0906C0D9
:1005B000A60195012E193F09400B510B57FD08C0AC
:1005C00011823382228224833583468357831DC060
:1005D00081E081833382228288279927DC01821B74
:1005E000930BA40BB50B84839583A683B7830DC0AF
:1005F000220F331F441F551F24833583468357839F
:1006000082819381019793838283248135814681FE
:100610005781DA01C9010197A109B1098F5F9F4F85
:10062000AF4FBF4328F30BC0918333822282EA0C81
:10063000FB1C0C1D1D1DE482F5820683178383E0DD
:100640008083248135814681578157FF1AC0C901B3
:10065000AA2797FDA095BA2F81709070A070B070F6
:100660005695479537952795822B932BA42BB52B21
:1006700084839583A683B783828193810196938334
:100680008283DF0101C0D201CD01CDB7DEB7E2E147
:1006900004C5A0E2B0E0EEE4F3E046C569837A83E6
:1006A0008B839C832D833E834F835887E9E0EE2E16
:1006B000F12CEC0EFD1ECE010196B701FDD38E018B
:1006C0000F5E1F4FCE010596B801F6D38A8991E0DF
:1006D00089278A8BC701B801AE01475E5F4F8FDE65
:1006E00016D3A096E6E0E5C4A0E2B0E0E9E7F3E0C7
:1006F0001BC569837A838B839C832D833E834F83C1
:100700005887F9E0EF2EF12CEC0EFD1ECE0101967C
:10071000B701D2D38E010F5E1F4FCE010596B801EF
:10072000CBD3C701B801AE01475E5F4F68DEEFD2A1
:10073000A096E6E0BEC4A0E2B0E0E0EAF3E0E8C4E0
:1007400069837A838B839C832D833E834F83588771
:10075000CE010196BE01675F7F4FAED3CE010596F5
:10076000BE016F5E7F4FA8D39985923088F089894A
:100770008230C8F0943019F4823051F404C08430CF
:1007800029F4923081F480E690E0C6C0923049F4BA
:1007900020E09A858A89981321E02A87CE0109965C
:1007A000BBC0823049F420E09A858A89981321E001
:1007B0002A8BCE014196B0C02D843E844F84588848
:1007C0006D887E888F88988CEE24FF248701AA2468
:1007D000BB24650140E050E060E070E0E0E0F0E064
:1007E000C10181709070892BE9F0E60CF71C081D9F
:1007F000191D9A01AB012A0D3B1D4C1D5D1D80E0AA
:1008000090E0A0E0B0E0E614F7040805190520F434
:1008100081E090E0A0E0B0E0BA01A901480F591FC3
:100820006A1F7B1FAA0CBB1CCC1CDD1C97FE08C0DA
:1008300081E090E0A0E0B0E0A82AB92ACA2ADB2A29
:100840003196E032F10549F0660C771C881C991C42
:100850005694479437942794C3CFFA85EA892B8915
:100860003C898B859C85280F391F2E5F3F4F17C011
:10087000CA0181709070892B61F016950795F794E5
:10088000E79480E090E0A0E0B0E8E82AF92A0A2B9B
:100890001B2B76956795579547952F5F3F4F77FDB3
:1008A000E7CF0CC0440F551F661F771F17FD41602F
:1008B000EE0CFF1C001F111F21503040403090E013
:1008C000590790E0690790E4790760F32B8F3C8F1C
:1008D000DB01CA018F779070A070B07080349105F1
:1008E000A105B10561F447FD0AC0E114F104010559
:1008F000110529F0405C5F4F6F4F7F4F40781A8E93
:10090000FE1711F081E08A8F4D8F5E8F6F8F78A375
:1009100083E0898FCE014996FAD1A096E2E1BDC36A
:10092000A8E1B0E0E5E9F4E0FBC369837A838B8357
:100930009C832D833E834F835887B9E0EB2EF12CA7
:10094000EC0EFD1ECE010196B701B6D28E010F5EF0
:100950001F4FCE010596B801AFD22985223008F489
:100960007EC03989323010F4B8017CC08A859A89FA
:1009700089278A87243011F0223031F4231709F0B7
:100980006EC060E670E06EC0343039F41D861E869D
:100990001F86188A1C861B8604C0323021F484E02E
:1009A0008987B7015FC02B853C858B899C89281B73
:1009B000390B3C872B87ED84FE840F851889AD8821
:1009C000BE88CF88D88CEA14FB040C051D0540F4C2
:1009D000EE0CFF1C001F111F215030403C872B875D
:1009E00020E030E040E050E080E090E0A0E0B0E4C3
:1009F00060E070E0EA14FB040C051D0540F0282BB4
:100A0000392B4A2B5B2BEA18FB080C091D09B695FC
:100A1000A79597958795EE0CFF1C001F111F6F5F20
:100A20007F4F6F31710531F7DA01C9018F7790700F
:100A3000A070B07080349105A105B10561F427FD67
:100A40000AC0E114F1040105110529F0205C3F4FB3
:100A50004F4F5F4F20782D873E874F87588BBE01C1
:100A6000675F7F4FCB0153D16896EAE01EC3A8E1D0
:100A7000B0E0ECE3F5E058C369837A838B839C8311
:100A80002D833E834F83588789E0E82EF12CEC0EAE
:100A9000FD1ECE010196B7010FD28E010F5E1F4FD2
:100AA000CE010596B80108D28985823038F089894F
:100AB000823020F0C701B80177D201C08FEF68966D
:100AC000E6E0F7C2A8E1B0E0E7E6F5E02DC3698310
:100AD0007A838B839C832D833E834F83588789E061
:100AE000E82EF12CEC0EFD1ECE010196B701E4D1EB
:100AF0008E010F5E1F4FCE010596B801DDD18985AD
:100B0000823038F08989823020F0C701B8014CD298
:100B100001C08FEF6896E6E0CCC2A8E0B0E0E2E961
:100B2000F5E0FFC29B01AC0183E08983DA01C901D2
:100B30008827B7FD83959927AA27BB27B82E2115AB
:100B400031054105510519F482E0898339C08823B4
:100B5000A9F0203080E0380780E0480780E8580797
:100B600029F460E070E080E09FEC2EC0EE24FF24CA
:100B70008701E21AF30A040B150B02C079018A01FE
:100B80008EE1C82ED12CDC82CB82ED82FE820F83D7
:100B90001887C801B7016CD001971816190684F49C
:100BA000082E04C0EE0CFF1C001F111F0A94D2F780
:100BB000ED82FE820F831887C81AD90ADC82CB82A5
:100BC000BA82CE010196A3D02896E9E06FC2ACE0CC
:100BD000B0E0ECEEF5E0ACC269837A838B839C8352
:100BE000CE010196BE016B5F7F4F66D18D81823051
:100BF00061F1823050F1843021F48E81882351F1EB
:100C00002EC02F81388537FD20C06E812F313105F0
:100C10001CF06623F9F023C08EE190E0821B930B59
:100C200029853A854B855C8504C05695479537954F
:100C300027958A95D2F76623B1F050954095309567
:100C400021953F4F4F4F5F4F0EC020E030E040E016
:100C500050E009C02FEF3FEF4FEF5FE704C020E007
:100C600030E040E050E8B901CA012C96E2E025C22C
:100C7000EF92FF920F931F937B018C0180E0E816A7
:100C800080E0F80681E0080780E0180788F48FEF1D
:100C9000E816F1040105110531F028F088E090E034
:100CA000A0E0B0E017C080E090E0A0E0B0E012C0AB
:100CB00080E0E81680E0F80680E0080781E0180789
:100CC00028F088E190E0A0E0B0E004C080E190E08E
:100CD000A0E0B0E020E230E040E050E0281B390B1B
:100CE0004A0B5B0B04C016950795F794E7948A9519
:100CF000D2F7F701E859FF4F8081281B31094109DC
:100D00005109C9011F910F91FF90EF900895DF9253
:100D1000EF92FF920F931F93FC01E480F580068110
:100D20001781D1808081823048F480E090E0A0E19A
:100D3000B0E0E82AF92A0A2B1B2BA5C0843009F45D
:100D40009FC0823021F4EE24FF24870105C0E11406
:100D5000F1040105110519F4E0E0F0E096C06281AC
:100D600073819FEF623879070CF05BC022E83FEF98
:100D7000261B370B2A3131052CF020E030E040E013
:100D800050E02AC0B801A701022E04C076956795ED
:100D9000579547950A94D2F781E090E0A0E0B0E043
:100DA00004C0880F991FAA1FBB1F2A95D2F701976D
:100DB000A109B1098E219F21A023B1230097A1058C
:100DC000B10521F081E090E0A0E0B0E09A01AB0134
:100DD000282B392B4A2B5B2BDA01C9018F779070B6
:100DE000A070B07080349105A105B10539F427FFDA
:100DF00009C0205C3F4F4F4F5F4F04C0215C3F4F05
:100E00004F4F5F4FE0E0F0E02030A0E03A07A0E075
:100E10004A07A0E45A0710F0E1E0F0E079018A0106
:100E200027C06038710564F5FB01E158FF4FD80118
:100E3000C7018F779070A070B07080349105A105C4
:100E4000B10539F4E7FE0DC080E490E0A0E0B0E029
:100E500004C08FE390E0A0E0B0E0E80EF91E0A1FA6
:100E60001B1F17FF05C016950795F794E794319659
:100E700087E016950795F794E7948A95D1F705C012
:100E8000EE24FF248701EFEFF0E06E2F67956627D1
:100E90006795902F9F77D794DD24D7948E2F8695D2
:100EA000492F462B582F5D29B701CA011F910F9179
:100EB000FF90EF90DF900895FC01DB0140815181AC
:100EC0002281622F6F7770E0221F2227221F9381D9
:100ED000892F880F822B282F30E0991F9927991F7F
:100EE00011969C93119721153105A9F541155105CE
:100EF0006105710511F482E037C082E89FEF139617
:100F00009C938E9312979A01AB0167E0220F331FD7
:100F1000441F551F6A95D1F783E08C930DC0220FB3
:100F2000331F441F551F12968D919C911397019763
:100F300013969C938E931297203080E0380780E0C0
:100F4000480780E4580758F314962D933D934D932A
:100F50005C93179708952F3F310579F4411551059A
:100F60006105710519F484E08C93089564FF03C052
:100F700081E08C9312C01C9210C02F573040139602
:100F80003C932E93129783E08C9387E0440F551F78
:100F9000661F771F8A95D1F7706414964D935D9301
:100FA0006D937C93179708951F93DC01FB019C912F
:100FB000923008F447C08081823008F443C09430F6
:100FC00051F411961C91843099F58181682F70E05D
:100FD000611B71093FC0843021F0923031F48230BE
:100FE000B9F18181882389F12DC011961C91119747
:100FF0008230F1F081811817D9F412962D913C912D
:101000001397828193818217930794F028173907E9
:10101000BCF014968D919D910D90BC91A02D2481D2
:10102000358146815781281739074A075B0718F42D
:10103000112341F00AC082179307A407B50740F4B3
:10104000112319F061E070E005C06FEF7FEF02C07F
:1010500060E070E0CB011F91089587FB082E062603
:1010600087FD819567FD619533D00EF4919507FC5E
:101070008195089597FB092E07260AD077FD04D0A5
:1010800033D006D000201AF4709561957F4F0895F3
:10109000F6F7909581959F4F08952A88398848885A
:1010A0005F846E847D848C849B84AA84B984C88484
:1010B000DF80EE80FD800C811B81AA81B981CE0F7B
:1010C000D11D0FB6F894DEBF0FBECDBFED01089560
:1010D000991B79E004C0991F961708F0961B881F8A
:1010E0007A95C9F780950895AA1BBB1B51E107C0EB
:1010F000AA1FBB1FA617B70710F0A61BB70B881FA8
:10110000991F5A95A9F780959095BC01CD01089536
:101110002F923F924F925F926F927F928F929F9207
:10112000AF92BF92CF92DF92EF92FF920F931F93F5
:10113000CF93DF93CDB7DEB7CA1BDB0B0FB6F894A6
:0C114000DEBF0FBECDBF0994F894FFCFB6
:10114C000000000000000000000102020303030382
:10115C00040404040404040405050505050505053B
:10116C00050505050505050506060606060606061B
:10117C000606060606060606060606060606060603
:10118C0006060606060606060707070707070707EB
:10119C0007070707070707070707070707070707D3
:1011AC0007070707070707070707070707070707C3
:1011BC0007070707070707070707070707070707B3
:1011CC00070707070707070708080808080808089B
:1011DC000808080808080808080808080808080883
:1011EC000808080808080808080808080808080873
:1011FC000808080808080808080808080808080863
:10120C000808080808080808080808080808080852
:10121C000808080808080808080808080808080842
:10122C000808080808080808080808080808080832
:10123C000808080808080808080808080808080822
:08124C0008080808080808085A
:00000001FF
